{
  "_format": "hh-sol-artifact-1",
  "contractName": "Utility",
  "sourceName": "contracts/Utility.sol",
  "abi": [
    {
      "inputs": [
        {
          "internalType": "address",
          "name": "wallet",
          "type": "address"
        },
        {
          "internalType": "address[]",
          "name": "tokens",
          "type": "address[]"
        }
      ],
      "name": "getBalances",
      "outputs": [
        {
          "components": [
            {
              "internalType": "address",
              "name": "token",
              "type": "address"
            },
            {
              "internalType": "uint256",
              "name": "balance",
              "type": "uint256"
            }
          ],
          "internalType": "struct Utility.TokenBalance[]",
          "name": "",
          "type": "tuple[]"
        }
      ],
      "stateMutability": "view",
      "type": "function"
    }
  ],
  "bytecode": "0x608060405234801561001057600080fd5b506106c1806100206000396000f3fe608060405234801561001057600080fd5b506004361061002b5760003560e01c80636a385ae914610030575b600080fd5b61004a600480360381019061004591906103dd565b610060565b604051610057919061053f565b60405180910390f35b60606000825167ffffffffffffffff81111561007f5761007e61029a565b5b6040519080825280602002602001820160405280156100b857816020015b6100a56101e2565b81526020019060019003908161009d5790505b50905060005b83518110156101d75760008482815181106100dc576100db610561565b5b60200260200101519050600081905060008173ffffffffffffffffffffffffffffffffffffffff166370a08231896040518263ffffffff1660e01b8152600401610126919061059f565b60206040518083038186803b15801561013e57600080fd5b505afa158015610152573d6000803e3d6000fd5b505050506040513d601f19601f8201168201806040525081019061017691906105e6565b905060405180604001604052808473ffffffffffffffffffffffffffffffffffffffff168152602001828152508585815181106101b6576101b5610561565b5b602002602001018190525050505080806101cf90610642565b9150506100be565b508091505092915050565b6040518060400160405280600073ffffffffffffffffffffffffffffffffffffffff168152602001600081525090565b6000604051905090565b600080fd5b600080fd5b600073ffffffffffffffffffffffffffffffffffffffff82169050919050565b600061025182610226565b9050919050565b61026181610246565b811461026c57600080fd5b50565b60008135905061027e81610258565b92915050565b600080fd5b6000601f19601f8301169050919050565b7f4e487b7100000000000000000000000000000000000000000000000000000000600052604160045260246000fd5b6102d282610289565b810181811067ffffffffffffffff821117156102f1576102f061029a565b5b80604052505050565b6000610304610212565b905061031082826102c9565b919050565b600067ffffffffffffffff8211156103305761032f61029a565b5b602082029050602081019050919050565b600080fd5b600061035961035484610315565b6102fa565b9050808382526020820190506020840283018581111561037c5761037b610341565b5b835b818110156103a55780610391888261026f565b84526020840193505060208101905061037e565b5050509392505050565b600082601f8301126103c4576103c3610284565b5b81356103d4848260208601610346565b91505092915050565b600080604083850312156103f4576103f361021c565b5b60006104028582860161026f565b925050602083013567ffffffffffffffff81111561042357610422610221565b5b61042f858286016103af565b9150509250929050565b600081519050919050565b600082825260208201905092915050565b6000819050602082019050919050565b61046e81610246565b82525050565b6000819050919050565b61048781610474565b82525050565b6040820160008201516104a36000850182610465565b5060208201516104b6602085018261047e565b50505050565b60006104c8838361048d565b60408301905092915050565b6000602082019050919050565b60006104ec82610439565b6104f68185610444565b935061050183610455565b8060005b8381101561053257815161051988826104bc565b9750610524836104d4565b925050600181019050610505565b5085935050505092915050565b6000602082019050818103600083015261055981846104e1565b905092915050565b7f4e487b7100000000000000000000000000000000000000000000000000000000600052603260045260246000fd5b61059981610246565b82525050565b60006020820190506105b46000830184610590565b92915050565b6105c381610474565b81146105ce57600080fd5b50565b6000815190506105e0816105ba565b92915050565b6000602082840312156105fc576105fb61021c565b5b600061060a848285016105d1565b91505092915050565b7f4e487b7100000000000000000000000000000000000000000000000000000000600052601160045260246000fd5b600061064d82610474565b91507fffffffffffffffffffffffffffffffffffffffffffffffffffffffffffffffff8214156106805761067f610613565b5b60018201905091905056fea2646970667358221220eddbb15a0d9cfdc51830e87bfddbc7c372413563c03f4c984389c33f977c1f9964736f6c63430008090033",
  "linkReferences": {},
  "deployedLinkReferences": {}
}